{
  "contractName": "DividendDistributor",
  "abi": [
    {
      "constant": false,
      "inputs": [],
      "name": "getDividend",
      "outputs": [
        {
          "name": "",
          "type": "bool"
        }
      ],
      "payable": false,
      "stateMutability": "nonpayable",
      "type": "function"
    },
    {
      "constant": true,
      "inputs": [],
      "name": "totalWei",
      "outputs": [
        {
          "name": "",
          "type": "uint256"
        }
      ],
      "payable": false,
      "stateMutability": "view",
      "type": "function"
    },
    {
      "constant": true,
      "inputs": [],
      "name": "owner",
      "outputs": [
        {
          "name": "",
          "type": "address"
        }
      ],
      "payable": false,
      "stateMutability": "view",
      "type": "function"
    },
    {
      "constant": false,
      "inputs": [
        {
          "name": "newOwner",
          "type": "address"
        }
      ],
      "name": "transferOwnership",
      "outputs": [],
      "payable": false,
      "stateMutability": "nonpayable",
      "type": "function"
    },
    {
      "constant": true,
      "inputs": [],
      "name": "token",
      "outputs": [
        {
          "name": "",
          "type": "address"
        }
      ],
      "payable": false,
      "stateMutability": "view",
      "type": "function"
    },
    {
      "inputs": [
        {
          "name": "_token",
          "type": "address"
        }
      ],
      "payable": false,
      "stateMutability": "nonpayable",
      "type": "constructor"
    },
    {
      "payable": true,
      "stateMutability": "payable",
      "type": "fallback"
    },
    {
      "anonymous": false,
      "inputs": [
        {
          "indexed": true,
          "name": "previousOwner",
          "type": "address"
        },
        {
          "indexed": true,
          "name": "newOwner",
          "type": "address"
        }
      ],
      "name": "OwnershipTransferred",
      "type": "event"
    }
  ],
  "bytecode": "0x606060405260008060146101000a81548160ff021916908315150217905550341561002957600080fd5b60405160208061096a83398101604052808051906020019091905050336000806101000a81548173ffffffffffffffffffffffffffffffffffffffff021916908373ffffffffffffffffffffffffffffffffffffffff160217905550600073ffffffffffffffffffffffffffffffffffffffff168173ffffffffffffffffffffffffffffffffffffffff16141515156100c157600080fd5b80600160006101000a81548173ffffffffffffffffffffffffffffffffffffffff021916908373ffffffffffffffffffffffffffffffffffffffff16021790555050610858806101126000396000f30060606040526004361061006d576000357c0100000000000000000000000000000000000000000000000000000000900463ffffffff1680631ad3fba61461008a5780636d98e9fc146100b75780638da5cb5b146100e0578063f2fde38b14610135578063fc0c546a1461016e575b610082346002546101c390919063ffffffff16565b600281905550005b341561009557600080fd5b61009d6101e1565b604051808215151515815260200191505060405180910390f35b34156100c257600080fd5b6100ca61061c565b6040518082815260200191505060405180910390f35b34156100eb57600080fd5b6100f3610622565b604051808273ffffffffffffffffffffffffffffffffffffffff1673ffffffffffffffffffffffffffffffffffffffff16815260200191505060405180910390f35b341561014057600080fd5b61016c600480803573ffffffffffffffffffffffffffffffffffffffff16906020019091905050610647565b005b341561017957600080fd5b61018161079c565b604051808273ffffffffffffffffffffffffffffffffffffffff1673ffffffffffffffffffffffffffffffffffffffff16815260200191505060405180910390f35b60008082840190508381101515156101d757fe5b8091505092915050565b60008060008060008060149054906101000a900460ff1615151561020457600080fd5b6001600060146101000a81548160ff021916908315150217905550600160009054906101000a900473ffffffffffffffffffffffffffffffffffffffff1673ffffffffffffffffffffffffffffffffffffffff166370a08231336000604051602001526040518263ffffffff167c0100000000000000000000000000000000000000000000000000000000028152600401808273ffffffffffffffffffffffffffffffffffffffff1673ffffffffffffffffffffffffffffffffffffffff168152602001915050602060405180830381600087803b15156102e457600080fd5b6102c65a03f115156102f557600080fd5b505050604051805190509350600160009054906101000a900473ffffffffffffffffffffffffffffffffffffffff1673ffffffffffffffffffffffffffffffffffffffff1663de3636cf336000604051602001526040518263ffffffff167c0100000000000000000000000000000000000000000000000000000000028152600401808273ffffffffffffffffffffffffffffffffffffffff1673ffffffffffffffffffffffffffffffffffffffff168152602001915050602060405180830381600087803b15156103c657600080fd5b6102c65a03f115156103d757600080fd5b505050604051805190509250600160009054906101000a900473ffffffffffffffffffffffffffffffffffffffff1673ffffffffffffffffffffffffffffffffffffffff166318160ddd6000604051602001526040518163ffffffff167c0100000000000000000000000000000000000000000000000000000000028152600401602060405180830381600087803b151561047157600080fd5b6102c65a03f1151561048257600080fd5b5050506040518051905091506104b5826104a7866002546107c290919063ffffffff16565b6107fd90919063ffffffff16565b90506104ca838261081390919063ffffffff16565b905060008111156105f657600160009054906101000a900473ffffffffffffffffffffffffffffffffffffffff1673ffffffffffffffffffffffffffffffffffffffff166372fdbf2533836040518363ffffffff167c0100000000000000000000000000000000000000000000000000000000028152600401808373ffffffffffffffffffffffffffffffffffffffff1673ffffffffffffffffffffffffffffffffffffffff16815260200182815260200192505050600060405180830381600087803b151561059957600080fd5b6102c65a03f115156105aa57600080fd5b5050503373ffffffffffffffffffffffffffffffffffffffff166108fc829081150290604051600060405180830381858888f1935050505015156105ed57600080fd5b600194506105fb565b600094505b60008060146101000a81548160ff0219169083151502179055505050505090565b60025481565b6000809054906101000a900473ffffffffffffffffffffffffffffffffffffffff1681565b6000809054906101000a900473ffffffffffffffffffffffffffffffffffffffff1673ffffffffffffffffffffffffffffffffffffffff163373ffffffffffffffffffffffffffffffffffffffff161415156106a257600080fd5b600073ffffffffffffffffffffffffffffffffffffffff168173ffffffffffffffffffffffffffffffffffffffff16141515156106de57600080fd5b8073ffffffffffffffffffffffffffffffffffffffff166000809054906101000a900473ffffffffffffffffffffffffffffffffffffffff1673ffffffffffffffffffffffffffffffffffffffff167f8be0079c531659141344cd1fd0a4f28419497f9722a3daafe3b4186f6b6457e060405160405180910390a3806000806101000a81548173ffffffffffffffffffffffffffffffffffffffff021916908373ffffffffffffffffffffffffffffffffffffffff16021790555050565b600160009054906101000a900473ffffffffffffffffffffffffffffffffffffffff1681565b60008060008414156107d757600091506107f6565b82840290508284828115156107e857fe5b041415156107f257fe5b8091505b5092915050565b6000818381151561080a57fe5b04905092915050565b600082821115151561082157fe5b8183039050929150505600a165627a7a723058201195f78424f8c90d79d221e226efbc86e00d8caa8266e063e36539d682568f2e0029",
  "source": "pragma solidity ^0.4.18;\n\nimport \"./RicoToken.sol\";\n\ncontract ReentrancyGuard {\n\n    /**\n     * @dev We use a single lock for the whole contract.\n     */\n    bool private reentrancy_lock = false;\n\n    /**\n     * @dev Prevents a contract from calling itself, directly or indirectly.\n     * @notice If you mark a function `nonReentrant`, you should also\n     * mark it `external`. Calling one nonReentrant function from\n     * another is not supported. Instead, you can implement a\n     * `private` function doing the actual work, and a `external`\n     * wrapper marked as `nonReentrant`.\n     */\n    modifier nonReentrant() {\n        require(!reentrancy_lock);\n        reentrancy_lock = true;\n        _;\n        reentrancy_lock = false;\n    }\n\n}\n\ncontract DividendDistributor is Ownable, ReentrancyGuard {\n    using SafeMath for uint256;\n\n    RicoToken public token;\n\n    // total wei on contract for all the time\n    uint256 public totalWei;\n\n    function DividendDistributor(address _token) public {\n        require(_token != address(0));\n\n        token = RicoToken(_token);\n    }\n\n    function getDividend() public nonReentrant returns (bool) {\n        uint256 senderBalance = token.balanceOf(msg.sender);\n        uint256 senderDividendPayments = token.dividendPayments(msg.sender);\n        uint256 totalTokens = token.totalSupply();\n\n        // calculate dividend amount\n        uint256 dividend = totalWei.mul(senderBalance).div(totalTokens);\n\n        // subtract dividend which has been taken by investor\n        dividend = dividend.sub(senderDividendPayments);\n\n        if (dividend > 0) {\n            token.increaseDividendPayments(msg.sender, dividend);\n            msg.sender.transfer(dividend);\n            return true;\n        }\n\n        return false;\n    }\n\n    function() external payable {\n        totalWei = totalWei.add(msg.value);\n    }\n\n}\n",
  "sourcePath": "/Users/alexander/Desktop/Rico/contracts/DividendDistributor.sol",
  "compiler": {
    "name": "solc",
    "version": "0.4.19+commit.c4cbbb05.Emscripten.clang"
  },
  "schemaVersion": "1.0.1",
  "updatedAt": "2018-04-11T20:22:19.015Z"
}