{
  "contractName": "DividendDistributor",
  "abi": [
    {
      "constant": true,
      "inputs": [],
      "name": "totalWei",
      "outputs": [
        {
          "name": "",
          "type": "uint256"
        }
      ],
      "payable": false,
      "stateMutability": "view",
      "type": "function"
    },
    {
      "constant": true,
      "inputs": [],
      "name": "owner",
      "outputs": [
        {
          "name": "",
          "type": "address"
        }
      ],
      "payable": false,
      "stateMutability": "view",
      "type": "function"
    },
    {
      "constant": false,
      "inputs": [
        {
          "name": "newOwner",
          "type": "address"
        }
      ],
      "name": "transferOwnership",
      "outputs": [],
      "payable": false,
      "stateMutability": "nonpayable",
      "type": "function"
    },
    {
      "constant": true,
      "inputs": [],
      "name": "token",
      "outputs": [
        {
          "name": "",
          "type": "address"
        }
      ],
      "payable": false,
      "stateMutability": "view",
      "type": "function"
    },
    {
      "inputs": [
        {
          "name": "_token",
          "type": "address"
        }
      ],
      "payable": false,
      "stateMutability": "nonpayable",
      "type": "constructor"
    },
    {
      "payable": true,
      "stateMutability": "payable",
      "type": "fallback"
    },
    {
      "anonymous": false,
      "inputs": [
        {
          "indexed": true,
          "name": "previousOwner",
          "type": "address"
        },
        {
          "indexed": true,
          "name": "newOwner",
          "type": "address"
        }
      ],
      "name": "OwnershipTransferred",
      "type": "event"
    },
    {
      "constant": false,
      "inputs": [],
      "name": "getDividend",
      "outputs": [
        {
          "name": "",
          "type": "bool"
        }
      ],
      "payable": false,
      "stateMutability": "nonpayable",
      "type": "function"
    }
  ],
  "bytecode": "0x606060405260008060146101000a81548160ff021916908315150217905550341561002957600080fd5b60405160208061093f83398101604052808051906020019091905050336000806101000a81548173ffffffffffffffffffffffffffffffffffffffff021916908373ffffffffffffffffffffffffffffffffffffffff160217905550600073ffffffffffffffffffffffffffffffffffffffff168173ffffffffffffffffffffffffffffffffffffffff16141515156100c157600080fd5b80600160006101000a81548173ffffffffffffffffffffffffffffffffffffffff021916908373ffffffffffffffffffffffffffffffffffffffff1602179055505061082d806101126000396000f30060606040526004361061006d576000357c0100000000000000000000000000000000000000000000000000000000900463ffffffff1680631ad3fba61461008a5780636d98e9fc146100b75780638da5cb5b146100e0578063f2fde38b14610135578063fc0c546a1461016e575b610082346002546101c390919063ffffffff16565b600281905550005b341561009557600080fd5b61009d6101e1565b604051808215151515815260200191505060405180910390f35b34156100c257600080fd5b6100ca6105f1565b6040518082815260200191505060405180910390f35b34156100eb57600080fd5b6100f36105f7565b604051808273ffffffffffffffffffffffffffffffffffffffff1673ffffffffffffffffffffffffffffffffffffffff16815260200191505060405180910390f35b341561014057600080fd5b61016c600480803573ffffffffffffffffffffffffffffffffffffffff1690602001909190505061061c565b005b341561017957600080fd5b610181610771565b604051808273ffffffffffffffffffffffffffffffffffffffff1673ffffffffffffffffffffffffffffffffffffffff16815260200191505060405180910390f35b60008082840190508381101515156101d757fe5b8091505092915050565b60008060008060008060149054906101000a900460ff1615151561020457600080fd5b6001600060146101000a81548160ff021916908315150217905550600160009054906101000a900473ffffffffffffffffffffffffffffffffffffffff1673ffffffffffffffffffffffffffffffffffffffff166370a08231336040518263ffffffff167c0100000000000000000000000000000000000000000000000000000000028152600401808273ffffffffffffffffffffffffffffffffffffffff1673ffffffffffffffffffffffffffffffffffffffff168152602001915050602060405180830381600087803b15156102db57600080fd5b5af115156102e857600080fd5b505050604051805190509350600160009054906101000a900473ffffffffffffffffffffffffffffffffffffffff1673ffffffffffffffffffffffffffffffffffffffff1663de3636cf336040518263ffffffff167c0100000000000000000000000000000000000000000000000000000000028152600401808273ffffffffffffffffffffffffffffffffffffffff1673ffffffffffffffffffffffffffffffffffffffff168152602001915050602060405180830381600087803b15156103b057600080fd5b5af115156103bd57600080fd5b505050604051805190509250600160009054906101000a900473ffffffffffffffffffffffffffffffffffffffff1673ffffffffffffffffffffffffffffffffffffffff166318160ddd6040518163ffffffff167c0100000000000000000000000000000000000000000000000000000000028152600401602060405180830381600087803b151561044e57600080fd5b5af1151561045b57600080fd5b50505060405180519050915061048e826104808660025461079790919063ffffffff16565b6107d290919063ffffffff16565b90506104a383826107e890919063ffffffff16565b905060008111156105cb57600160009054906101000a900473ffffffffffffffffffffffffffffffffffffffff1673ffffffffffffffffffffffffffffffffffffffff166372fdbf2533836040518363ffffffff167c0100000000000000000000000000000000000000000000000000000000028152600401808373ffffffffffffffffffffffffffffffffffffffff1673ffffffffffffffffffffffffffffffffffffffff16815260200182815260200192505050600060405180830381600087803b151561057257600080fd5b5af1151561057f57600080fd5b5050503373ffffffffffffffffffffffffffffffffffffffff166108fc829081150290604051600060405180830381858888f1935050505015156105c257600080fd5b600194506105d0565b600094505b60008060146101000a81548160ff0219169083151502179055505050505090565b60025481565b6000809054906101000a900473ffffffffffffffffffffffffffffffffffffffff1681565b6000809054906101000a900473ffffffffffffffffffffffffffffffffffffffff1673ffffffffffffffffffffffffffffffffffffffff163373ffffffffffffffffffffffffffffffffffffffff1614151561067757600080fd5b600073ffffffffffffffffffffffffffffffffffffffff168173ffffffffffffffffffffffffffffffffffffffff16141515156106b357600080fd5b8073ffffffffffffffffffffffffffffffffffffffff166000809054906101000a900473ffffffffffffffffffffffffffffffffffffffff1673ffffffffffffffffffffffffffffffffffffffff167f8be0079c531659141344cd1fd0a4f28419497f9722a3daafe3b4186f6b6457e060405160405180910390a3806000806101000a81548173ffffffffffffffffffffffffffffffffffffffff021916908373ffffffffffffffffffffffffffffffffffffffff16021790555050565b600160009054906101000a900473ffffffffffffffffffffffffffffffffffffffff1681565b60008060008414156107ac57600091506107cb565b82840290508284828115156107bd57fe5b041415156107c757fe5b8091505b5092915050565b600081838115156107df57fe5b04905092915050565b60008282111515156107f657fe5b8183039050929150505600a165627a7a723058208f2f3ebc2c838a555c7c9232c96d63d36db76dd84440930856f0ecaee826ac5a0029",
  "source": "pragma solidity ^0.4.18;\n\nimport \"./RicoToken.sol\";\n\ncontract ReentrancyGuard {\n\n    /**\n     * @dev We use a single lock for the whole contract.\n     */\n    bool private reentrancy_lock = false;\n\n    /**\n     * @dev Prevents a contract from calling itself, directly or indirectly.\n     * @notice If you mark a function `nonReentrant`, you should also\n     * mark it `external`. Calling one nonReentrant function from\n     * another is not supported. Instead, you can implement a\n     * `private` function doing the actual work, and a `external`\n     * wrapper marked as `nonReentrant`.\n     */\n    modifier nonReentrant() {\n        require(!reentrancy_lock);\n        reentrancy_lock = true;\n        _;\n        reentrancy_lock = false;\n    }\n\n}\n\ncontract DividendDistributor is Ownable, ReentrancyGuard {\n    using SafeMath for uint256;\n\n    RicoToken public token;\n\n    // total wei on contract for all the time\n    uint256 public totalWei;\n\n    function DividendDistributor(address _token) public {\n        require(_token != address(0));\n\n        token = RicoToken(_token);\n    }\n\n    function getDividend() public nonReentrant returns (bool) {\n        uint256 senderBalance = token.balanceOf(msg.sender);\n        uint256 senderDividendPayments = token.dividendPayments(msg.sender);\n        uint256 totalTokens = token.totalSupply();\n\n        // calculate dividend amount\n        uint256 dividend = totalWei.mul(senderBalance).div(totalTokens);\n\n        // subtract dividend which has been taken by investor\n        dividend = dividend.sub(senderDividendPayments);\n\n        if (dividend > 0) {\n            token.increaseDividendPayments(msg.sender, dividend);\n            msg.sender.transfer(dividend);\n            return true;\n        }\n\n        return false;\n    }\n\n    function() external payable {\n        totalWei = totalWei.add(msg.value);\n    }\n\n}\n",
  "sourcePath": "/Users/artemegerev/Desktop/Rico/contracts/DividendDistributor.sol",
  "compiler": {
    "name": "solc",
    "version": "0.4.21+commit.dfe3193c.Emscripten.clang"
  },
  "schemaVersion": "2.0.0",
  "updatedAt": "2018-04-11T23:37:04.495Z"
}