{
  "contractName": "PreSale",
  "abi": [
    {
      "constant": true,
      "inputs": [
        {
          "name": "",
          "type": "address"
        }
      ],
      "name": "balances",
      "outputs": [
        {
          "name": "",
          "type": "uint256"
        }
      ],
      "payable": false,
      "stateMutability": "view",
      "type": "function"
    },
    {
      "constant": true,
      "inputs": [],
      "name": "rate",
      "outputs": [
        {
          "name": "",
          "type": "uint256"
        }
      ],
      "payable": false,
      "stateMutability": "view",
      "type": "function"
    },
    {
      "constant": true,
      "inputs": [],
      "name": "endTime",
      "outputs": [
        {
          "name": "",
          "type": "uint256"
        }
      ],
      "payable": false,
      "stateMutability": "view",
      "type": "function"
    },
    {
      "constant": true,
      "inputs": [],
      "name": "weiRaised",
      "outputs": [
        {
          "name": "",
          "type": "uint256"
        }
      ],
      "payable": false,
      "stateMutability": "view",
      "type": "function"
    },
    {
      "constant": true,
      "inputs": [],
      "name": "wallet",
      "outputs": [
        {
          "name": "",
          "type": "address"
        }
      ],
      "payable": false,
      "stateMutability": "view",
      "type": "function"
    },
    {
      "constant": true,
      "inputs": [],
      "name": "startTime",
      "outputs": [
        {
          "name": "",
          "type": "uint256"
        }
      ],
      "payable": false,
      "stateMutability": "view",
      "type": "function"
    },
    {
      "constant": true,
      "inputs": [],
      "name": "owner",
      "outputs": [
        {
          "name": "",
          "type": "address"
        }
      ],
      "payable": false,
      "stateMutability": "view",
      "type": "function"
    },
    {
      "constant": true,
      "inputs": [],
      "name": "softCap",
      "outputs": [
        {
          "name": "",
          "type": "uint256"
        }
      ],
      "payable": false,
      "stateMutability": "view",
      "type": "function"
    },
    {
      "constant": true,
      "inputs": [],
      "name": "minimumInvest",
      "outputs": [
        {
          "name": "",
          "type": "uint256"
        }
      ],
      "payable": false,
      "stateMutability": "view",
      "type": "function"
    },
    {
      "constant": false,
      "inputs": [
        {
          "name": "newOwner",
          "type": "address"
        }
      ],
      "name": "transferOwnership",
      "outputs": [],
      "payable": false,
      "stateMutability": "nonpayable",
      "type": "function"
    },
    {
      "constant": true,
      "inputs": [],
      "name": "hardCap",
      "outputs": [
        {
          "name": "",
          "type": "uint256"
        }
      ],
      "payable": false,
      "stateMutability": "view",
      "type": "function"
    },
    {
      "constant": true,
      "inputs": [],
      "name": "token",
      "outputs": [
        {
          "name": "",
          "type": "address"
        }
      ],
      "payable": false,
      "stateMutability": "view",
      "type": "function"
    },
    {
      "inputs": [
        {
          "name": "_startTime",
          "type": "uint256"
        },
        {
          "name": "_period",
          "type": "uint256"
        },
        {
          "name": "_wallet",
          "type": "address"
        },
        {
          "name": "_token",
          "type": "address"
        },
        {
          "name": "_minimumInvest",
          "type": "uint256"
        }
      ],
      "payable": false,
      "stateMutability": "nonpayable",
      "type": "constructor"
    },
    {
      "payable": true,
      "stateMutability": "payable",
      "type": "fallback"
    },
    {
      "anonymous": false,
      "inputs": [
        {
          "indexed": true,
          "name": "purchaser",
          "type": "address"
        },
        {
          "indexed": true,
          "name": "beneficiary",
          "type": "address"
        },
        {
          "indexed": false,
          "name": "value",
          "type": "uint256"
        },
        {
          "indexed": false,
          "name": "amount",
          "type": "uint256"
        }
      ],
      "name": "TokenPurchase",
      "type": "event"
    },
    {
      "anonymous": false,
      "inputs": [
        {
          "indexed": true,
          "name": "previousOwner",
          "type": "address"
        },
        {
          "indexed": true,
          "name": "newOwner",
          "type": "address"
        }
      ],
      "name": "OwnershipTransferred",
      "type": "event"
    },
    {
      "constant": true,
      "inputs": [],
      "name": "hasEnded",
      "outputs": [
        {
          "name": "",
          "type": "bool"
        }
      ],
      "payable": false,
      "stateMutability": "view",
      "type": "function"
    },
    {
      "constant": false,
      "inputs": [],
      "name": "refund",
      "outputs": [],
      "payable": false,
      "stateMutability": "nonpayable",
      "type": "function"
    },
    {
      "constant": false,
      "inputs": [],
      "name": "finishPreSale",
      "outputs": [],
      "payable": false,
      "stateMutability": "nonpayable",
      "type": "function"
    },
    {
      "constant": false,
      "inputs": [
        {
          "name": "_beneficiary",
          "type": "address"
        }
      ],
      "name": "buyTokens",
      "outputs": [],
      "payable": true,
      "stateMutability": "payable",
      "type": "function"
    }
  ],
  "bytecode": "0x606060405260008060146101000a81548160ff021916908315150217905550341561002957600080fd5b60405160a080610f9483398101604052808051906020019091908051906020019091908051906020019091908051906020019091908051906020019091905050336000806101000a81548173ffffffffffffffffffffffffffffffffffffffff021916908373ffffffffffffffffffffffffffffffffffffffff160217905550600084141515156100b957600080fd5b600073ffffffffffffffffffffffffffffffffffffffff168273ffffffffffffffffffffffffffffffffffffffff16141515156100f557600080fd5b846002819055506201518084026002540160038190555082600460006101000a81548173ffffffffffffffffffffffffffffffffffffffff021916908373ffffffffffffffffffffffffffffffffffffffff16021790555081600160006101000a81548173ffffffffffffffffffffffffffffffffffffffff021916908373ffffffffffffffffffffffffffffffffffffffff16021790555080600681905550611a0b600581905550680821ab0d4414980000600781905550685150ae84a8cdf000006008819055506032600b819055505050505050610dba806101da6000396000f3006060604052600436106100e6576000357c0100000000000000000000000000000000000000000000000000000000900463ffffffff16806327e235e3146100f15780632c4e722e1461013e5780633197cbb61461016757806339885b23146101905780634042b66f146101a5578063521eb273146101ce578063590e1ae31461022357806378e97925146102385780638da5cb5b14610261578063906a26e0146102b6578063b10ed487146102df578063ec8ac4d814610308578063ecb70fb714610336578063f2fde38b14610363578063fb86a4041461039c578063fc0c546a146103c5575b6100ef3361041a565b005b34156100fc57600080fd5b610128600480803573ffffffffffffffffffffffffffffffffffffffff1690602001909190505061073a565b6040518082815260200191505060405180910390f35b341561014957600080fd5b610151610752565b6040518082815260200191505060405180910390f35b341561017257600080fd5b61017a610758565b6040518082815260200191505060405180910390f35b341561019b57600080fd5b6101a361075e565b005b34156101b057600080fd5b6101b861081f565b6040518082815260200191505060405180910390f35b34156101d957600080fd5b6101e1610825565b604051808273ffffffffffffffffffffffffffffffffffffffff1673ffffffffffffffffffffffffffffffffffffffff16815260200191505060405180910390f35b341561022e57600080fd5b61023661084b565b005b341561024357600080fd5b61024b610abf565b6040518082815260200191505060405180910390f35b341561026c57600080fd5b610274610ac5565b604051808273ffffffffffffffffffffffffffffffffffffffff1673ffffffffffffffffffffffffffffffffffffffff16815260200191505060405180910390f35b34156102c157600080fd5b6102c9610aea565b6040518082815260200191505060405180910390f35b34156102ea57600080fd5b6102f2610af0565b6040518082815260200191505060405180910390f35b610334600480803573ffffffffffffffffffffffffffffffffffffffff1690602001909190505061041a565b005b341561034157600080fd5b610349610af6565b604051808215151515815260200191505060405180910390f35b341561036e57600080fd5b61039a600480803573ffffffffffffffffffffffffffffffffffffffff16906020019091905050610b02565b005b34156103a757600080fd5b6103af610c57565b6040518082815260200191505060405180910390f35b34156103d057600080fd5b6103d8610c5d565b604051808273ffffffffffffffffffffffffffffffffffffffff1673ffffffffffffffffffffffffffffffffffffffff16815260200191505060405180910390f35b6000806000600254421015801561043357506003544211155b905080151561044157600080fd5b600854600a5410151561045357600080fd5b600060149054906101000a900460ff1615151561046f57600080fd5b6001600060146101000a81548160ff021916908315150217905550600073ffffffffffffffffffffffffffffffffffffffff168473ffffffffffffffffffffffffffffffffffffffff16141515156104c657600080fd5b60065434101515156104d757600080fd5b3492506104e383610c83565b915061051f6105106064610502600b5486610ca190919063ffffffff16565b610cdc90919063ffffffff16565b83610cf290919063ffffffff16565b9150600160009054906101000a900473ffffffffffffffffffffffffffffffffffffffff1673ffffffffffffffffffffffffffffffffffffffff166340c10f1985846040518363ffffffff167c0100000000000000000000000000000000000000000000000000000000028152600401808373ffffffffffffffffffffffffffffffffffffffff1673ffffffffffffffffffffffffffffffffffffffff16815260200182815260200192505050602060405180830381600087803b15156105e557600080fd5b5af115156105f257600080fd5b505050604051805190505061061283600a54610cf290919063ffffffff16565b600a8190555061066a83600960008773ffffffffffffffffffffffffffffffffffffffff1673ffffffffffffffffffffffffffffffffffffffff16815260200190815260200160002054610cf290919063ffffffff16565b600960008673ffffffffffffffffffffffffffffffffffffffff1673ffffffffffffffffffffffffffffffffffffffff168152602001908152602001600020819055508373ffffffffffffffffffffffffffffffffffffffff163373ffffffffffffffffffffffffffffffffffffffff167f623b3804fa71d67900d064613da8f94b9617215ee90799290593e1745087ad188585604051808381526020018281526020019250505060405180910390a360008060146101000a81548160ff02191690831515021790555050505050565b60096020528060005260406000206000915090505481565b60055481565b60035481565b6000809054906101000a900473ffffffffffffffffffffffffffffffffffffffff1673ffffffffffffffffffffffffffffffffffffffff163373ffffffffffffffffffffffffffffffffffffffff161415156107b957600080fd5b600754600a54101515156107cc57600080fd5b600854600a541015806107e0575060035442115b15156107eb57600080fd5b6003544210156107fd57426003819055505b61081d3073ffffffffffffffffffffffffffffffffffffffff1631610d10565b565b600a5481565b600460009054906101000a900473ffffffffffffffffffffffffffffffffffffffff1681565b600080600754600a54108015610862575060035442115b151561086d57600080fd5b600060149054906101000a900460ff1615151561088957600080fd5b6001600060146101000a81548160ff021916908315150217905550600960003373ffffffffffffffffffffffffffffffffffffffff1673ffffffffffffffffffffffffffffffffffffffff1681526020019081526020016000205491506000600960003373ffffffffffffffffffffffffffffffffffffffff1673ffffffffffffffffffffffffffffffffffffffff1681526020019081526020016000208190555061094082600a54610d7590919063ffffffff16565b600a8190555061094f82610c83565b905061098b61097c606461096e600b5485610ca190919063ffffffff16565b610cdc90919063ffffffff16565b82610cf290919063ffffffff16565b9050600160009054906101000a900473ffffffffffffffffffffffffffffffffffffffff1673ffffffffffffffffffffffffffffffffffffffff1663d0482d0433836040518363ffffffff167c0100000000000000000000000000000000000000000000000000000000028152600401808373ffffffffffffffffffffffffffffffffffffffff1673ffffffffffffffffffffffffffffffffffffffff16815260200182815260200192505050600060405180830381600087803b1515610a5157600080fd5b5af11515610a5e57600080fd5b5050503373ffffffffffffffffffffffffffffffffffffffff166108fc839081150290604051600060405180830381858888f193505050501515610aa157600080fd5b60008060146101000a81548160ff0219169083151502179055505050565b60025481565b6000809054906101000a900473ffffffffffffffffffffffffffffffffffffffff1681565b60075481565b60065481565b60006003544211905090565b6000809054906101000a900473ffffffffffffffffffffffffffffffffffffffff1673ffffffffffffffffffffffffffffffffffffffff163373ffffffffffffffffffffffffffffffffffffffff16141515610b5d57600080fd5b600073ffffffffffffffffffffffffffffffffffffffff168173ffffffffffffffffffffffffffffffffffffffff1614151515610b9957600080fd5b8073ffffffffffffffffffffffffffffffffffffffff166000809054906101000a900473ffffffffffffffffffffffffffffffffffffffff1673ffffffffffffffffffffffffffffffffffffffff167f8be0079c531659141344cd1fd0a4f28419497f9722a3daafe3b4186f6b6457e060405160405180910390a3806000806101000a81548173ffffffffffffffffffffffffffffffffffffffff021916908373ffffffffffffffffffffffffffffffffffffffff16021790555050565b60085481565b600160009054906101000a900473ffffffffffffffffffffffffffffffffffffffff1681565b6000610c9a60055483610ca190919063ffffffff16565b9050919050565b6000806000841415610cb65760009150610cd5565b8284029050828482811515610cc757fe5b04141515610cd157fe5b8091505b5092915050565b60008183811515610ce957fe5b04905092915050565b6000808284019050838110151515610d0657fe5b8091505092915050565b600460009054906101000a900473ffffffffffffffffffffffffffffffffffffffff1673ffffffffffffffffffffffffffffffffffffffff166108fc829081150290604051600060405180830381858888f193505050501515610d7257600080fd5b50565b6000828211151515610d8357fe5b8183039050929150505600a165627a7a723058209c3136e338b653ac3eb6aff98d70c2d3be6fd4bf55e5396390a41728073d85610029",
  "source": "pragma solidity ^0.4.18;\n\nimport \"./RicoToken.sol\";\n\n\ncontract ReentrancyGuard {\n\n    /**\n     * @dev We use a single lock for the whole contract.\n     */\n    bool private reentrancy_lock = false;\n\n    /**\n     * @dev Prevents a contract from calling itself, directly or indirectly.\n     * @notice If you mark a function `nonReentrant`, you should also\n     * mark it `external`. Calling one nonReentrant function from\n     * another is not supported. Instead, you can implement a\n     * `private` function doing the actual work, and a `external`\n     * wrapper marked as `nonReentrant`.\n     */\n    modifier nonReentrant() {\n        require(!reentrancy_lock);\n        reentrancy_lock = true;\n        _;\n        reentrancy_lock = false;\n    }\n\n}\n\ncontract PreSale is Ownable, ReentrancyGuard {\n    using SafeMath for uint256;\n\n    // The token being sold\n    RicoToken public token;\n\n    // start and end timestamps where investments are allowed (both inclusive)\n    uint256 public startTime;\n    uint256 public endTime;\n\n    // Address where funds are transferred after success end of PreSale\n    address public wallet;\n\n    // How many token units a buyer gets per wei\n    uint256 public rate;\n\n    uint256 public minimumInvest; // in wei\n\n    uint256 public softCap; // in wei\n    uint256 public hardCap; // in wei\n\n    // investors => amount of money\n    mapping(address => uint) public balances;\n\n    // Amount of wei raised\n    uint256 public weiRaised;\n\n    // PreSale bonus in percent\n    uint256 bonusPercent;\n\n    /**\n     * event for token purchase logging\n     * @param purchaser who paid for the tokens\n     * @param beneficiary who got the tokens\n     * @param value weis paid for purchase\n     * @param amount amount of tokens purchased\n     */\n    event TokenPurchase(address indexed purchaser, address indexed beneficiary, uint256 value, uint256 amount);\n\n    function PreSale(\n        uint256 _startTime,\n        uint256 _period,\n        address _wallet,\n        address _token,\n        uint256 _minimumInvest) public\n    {\n        require(_period != 0);\n        require(_token != address(0));\n\n        startTime = _startTime;\n        endTime = startTime + _period * 1 days;\n\n        wallet = _wallet;\n        token = RicoToken(_token);\n\n        // minimumInvest in wei\n        minimumInvest = _minimumInvest;\n\n        // 1 token for approximately 0.00015 eth\n        rate = 6667;\n\n        softCap = 150 * 1 ether;\n        hardCap = 1500 * 1 ether;\n        bonusPercent = 50;\n    }\n\n    // @return true if the transaction can buy tokens\n    modifier saleIsOn() {\n        bool withinPeriod = now >= startTime && now <= endTime;\n        require(withinPeriod);\n        _;\n    }\n\n    modifier isUnderHardCap() {\n        require(weiRaised < hardCap);\n        _;\n    }\n\n    modifier refundAllowed() {\n        require(weiRaised < softCap && now > endTime);\n        _;\n    }\n\n    // @return true if PreSale event has ended\n    function hasEnded() public view returns (bool) {\n        return now > endTime;\n    }\n\n    // Refund ether to the investors\n    function refund() public refundAllowed nonReentrant {\n        uint256 valueToReturn = balances[msg.sender];\n\n        // update states\n        balances[msg.sender] = 0;\n        weiRaised = weiRaised.sub(valueToReturn);\n\n        // burn tokens\n        uint256 tokens = getTokenAmount(valueToReturn);\n        tokens = tokens.add(tokens.mul(bonusPercent).div(100));\n        token.burnForRefund(msg.sender, tokens);\n\n        msg.sender.transfer(valueToReturn);\n    }\n\n    // Get amount of tokens\n    // @param value weis paid for tokens\n    function getTokenAmount(uint256 _value) internal view returns (uint256) {\n        return _value.mul(rate);\n    }\n\n    // Send weis to the wallet\n    function forwardFunds(uint256 _value) internal {\n        wallet.transfer(_value);\n    }\n\n    // Success finish of PreSale\n    function finishPreSale() public onlyOwner {\n        require(weiRaised >= softCap);\n        require(weiRaised >= hardCap || now > endTime);\n\n        if (now < endTime) {\n            endTime = now;\n        }\n\n        forwardFunds(this.balance);\n    }\n\n    // low level token purchase function\n    function buyTokens(address _beneficiary) saleIsOn isUnderHardCap nonReentrant public payable {\n        require(_beneficiary != address(0));\n        require(msg.value >= minimumInvest);\n\n        uint256 weiAmount = msg.value;\n        uint256 tokens = getTokenAmount(weiAmount);\n        tokens = tokens.add(tokens.mul(bonusPercent).div(100));\n\n        token.mint(_beneficiary, tokens);\n\n        // update states\n        weiRaised = weiRaised.add(weiAmount);\n        balances[_beneficiary] = balances[_beneficiary].add(weiAmount);\n\n        TokenPurchase(msg.sender, _beneficiary, weiAmount, tokens);\n    }\n\n    function() external payable {\n        buyTokens(msg.sender);\n    }\n}",
  "sourcePath": "/Users/artemegerev/Desktop/Rico/contracts/PreSale.sol",
  "compiler": {
    "name": "solc",
    "version": "0.4.21+commit.dfe3193c.Emscripten.clang"
  },
  "schemaVersion": "2.0.0",
  "updatedAt": "2018-04-11T23:37:04.499Z"
}