{
  "contractName": "rICO",
  "abi": [
    {
      "constant": true,
      "inputs": [],
      "name": "reservedWei",
      "outputs": [
        {
          "name": "",
          "type": "uint256"
        }
      ],
      "payable": false,
      "stateMutability": "view",
      "type": "function"
    },
    {
      "constant": true,
      "inputs": [],
      "name": "finalStageRefund",
      "outputs": [
        {
          "name": "",
          "type": "bool"
        }
      ],
      "payable": false,
      "stateMutability": "view",
      "type": "function"
    },
    {
      "constant": true,
      "inputs": [
        {
          "name": "",
          "type": "address"
        }
      ],
      "name": "balances",
      "outputs": [
        {
          "name": "",
          "type": "uint256"
        }
      ],
      "payable": false,
      "stateMutability": "view",
      "type": "function"
    },
    {
      "constant": true,
      "inputs": [],
      "name": "rate",
      "outputs": [
        {
          "name": "",
          "type": "uint256"
        }
      ],
      "payable": false,
      "stateMutability": "view",
      "type": "function"
    },
    {
      "constant": true,
      "inputs": [],
      "name": "weiRaised",
      "outputs": [
        {
          "name": "",
          "type": "uint256"
        }
      ],
      "payable": false,
      "stateMutability": "view",
      "type": "function"
    },
    {
      "constant": true,
      "inputs": [],
      "name": "restWei",
      "outputs": [
        {
          "name": "",
          "type": "uint256"
        }
      ],
      "payable": false,
      "stateMutability": "view",
      "type": "function"
    },
    {
      "constant": true,
      "inputs": [
        {
          "name": "",
          "type": "address"
        }
      ],
      "name": "balancesInToken",
      "outputs": [
        {
          "name": "",
          "type": "uint256"
        }
      ],
      "payable": false,
      "stateMutability": "view",
      "type": "function"
    },
    {
      "constant": true,
      "inputs": [],
      "name": "wallet",
      "outputs": [
        {
          "name": "",
          "type": "address"
        }
      ],
      "payable": false,
      "stateMutability": "view",
      "type": "function"
    },
    {
      "constant": true,
      "inputs": [],
      "name": "preSale",
      "outputs": [
        {
          "name": "",
          "type": "address"
        }
      ],
      "payable": false,
      "stateMutability": "view",
      "type": "function"
    },
    {
      "constant": true,
      "inputs": [],
      "name": "startTime",
      "outputs": [
        {
          "name": "",
          "type": "uint256"
        }
      ],
      "payable": false,
      "stateMutability": "view",
      "type": "function"
    },
    {
      "constant": true,
      "inputs": [],
      "name": "secondStageRefund",
      "outputs": [
        {
          "name": "",
          "type": "bool"
        }
      ],
      "payable": false,
      "stateMutability": "view",
      "type": "function"
    },
    {
      "constant": true,
      "inputs": [],
      "name": "endCrowdSaleTime",
      "outputs": [
        {
          "name": "",
          "type": "uint256"
        }
      ],
      "payable": false,
      "stateMutability": "view",
      "type": "function"
    },
    {
      "constant": true,
      "inputs": [],
      "name": "endRefundableTime",
      "outputs": [
        {
          "name": "",
          "type": "uint256"
        }
      ],
      "payable": false,
      "stateMutability": "view",
      "type": "function"
    },
    {
      "constant": true,
      "inputs": [],
      "name": "owner",
      "outputs": [
        {
          "name": "",
          "type": "address"
        }
      ],
      "payable": false,
      "stateMutability": "view",
      "type": "function"
    },
    {
      "constant": true,
      "inputs": [],
      "name": "softCap",
      "outputs": [
        {
          "name": "",
          "type": "uint256"
        }
      ],
      "payable": false,
      "stateMutability": "view",
      "type": "function"
    },
    {
      "constant": true,
      "inputs": [],
      "name": "firstStageRefund",
      "outputs": [
        {
          "name": "",
          "type": "bool"
        }
      ],
      "payable": false,
      "stateMutability": "view",
      "type": "function"
    },
    {
      "constant": true,
      "inputs": [],
      "name": "minimumInvest",
      "outputs": [
        {
          "name": "",
          "type": "uint256"
        }
      ],
      "payable": false,
      "stateMutability": "view",
      "type": "function"
    },
    {
      "constant": false,
      "inputs": [
        {
          "name": "newOwner",
          "type": "address"
        }
      ],
      "name": "transferOwnership",
      "outputs": [],
      "payable": false,
      "stateMutability": "nonpayable",
      "type": "function"
    },
    {
      "constant": true,
      "inputs": [],
      "name": "hardCap",
      "outputs": [
        {
          "name": "",
          "type": "uint256"
        }
      ],
      "payable": false,
      "stateMutability": "view",
      "type": "function"
    },
    {
      "constant": true,
      "inputs": [],
      "name": "token",
      "outputs": [
        {
          "name": "",
          "type": "address"
        }
      ],
      "payable": false,
      "stateMutability": "view",
      "type": "function"
    },
    {
      "inputs": [
        {
          "name": "_startTime",
          "type": "uint256"
        },
        {
          "name": "_wallet",
          "type": "address"
        },
        {
          "name": "_token",
          "type": "address"
        },
        {
          "name": "_preSale",
          "type": "address"
        },
        {
          "name": "_minimumInvest",
          "type": "uint256"
        }
      ],
      "payable": false,
      "stateMutability": "nonpayable",
      "type": "constructor"
    },
    {
      "payable": true,
      "stateMutability": "payable",
      "type": "fallback"
    },
    {
      "anonymous": false,
      "inputs": [
        {
          "indexed": true,
          "name": "purchaser",
          "type": "address"
        },
        {
          "indexed": true,
          "name": "beneficiary",
          "type": "address"
        },
        {
          "indexed": false,
          "name": "value",
          "type": "uint256"
        },
        {
          "indexed": false,
          "name": "amount",
          "type": "uint256"
        }
      ],
      "name": "TokenPurchase",
      "type": "event"
    },
    {
      "anonymous": false,
      "inputs": [
        {
          "indexed": true,
          "name": "previousOwner",
          "type": "address"
        },
        {
          "indexed": true,
          "name": "newOwner",
          "type": "address"
        }
      ],
      "name": "OwnershipTransferred",
      "type": "event"
    },
    {
      "constant": true,
      "inputs": [],
      "name": "hasEnded",
      "outputs": [
        {
          "name": "",
          "type": "bool"
        }
      ],
      "payable": false,
      "stateMutability": "view",
      "type": "function"
    },
    {
      "constant": false,
      "inputs": [],
      "name": "updateReservedWei",
      "outputs": [],
      "payable": false,
      "stateMutability": "nonpayable",
      "type": "function"
    },
    {
      "constant": false,
      "inputs": [],
      "name": "refund",
      "outputs": [],
      "payable": false,
      "stateMutability": "nonpayable",
      "type": "function"
    },
    {
      "constant": false,
      "inputs": [],
      "name": "refundPart",
      "outputs": [],
      "payable": false,
      "stateMutability": "nonpayable",
      "type": "function"
    },
    {
      "constant": false,
      "inputs": [],
      "name": "withdrawal",
      "outputs": [],
      "payable": false,
      "stateMutability": "nonpayable",
      "type": "function"
    },
    {
      "constant": false,
      "inputs": [],
      "name": "finishCrowdSale",
      "outputs": [],
      "payable": false,
      "stateMutability": "nonpayable",
      "type": "function"
    },
    {
      "constant": false,
      "inputs": [
        {
          "name": "_beneficiary",
          "type": "address"
        }
      ],
      "name": "buyTokens",
      "outputs": [],
      "payable": true,
      "stateMutability": "payable",
      "type": "function"
    }
  ],
  "bytecode": "0x606060405260008060146101000a81548160ff0219169083151502179055506000601060006101000a81548160ff0219169083151502179055506000601060016101000a81548160ff0219169083151502179055506000601060026101000a81548160ff021916908315150217905550341561007a57600080fd5b60405160a08061201a83398101604052808051906020019091908051906020019091908051906020019091908051906020019091908051906020019091905050336000806101000a81548173ffffffffffffffffffffffffffffffffffffffff021916908373ffffffffffffffffffffffffffffffffffffffff160217905550600073ffffffffffffffffffffffffffffffffffffffff168373ffffffffffffffffffffffffffffffffffffffff161415151561013657600080fd5b84600381905550624f1a00600354016004819055506276a7006004540160058190555083600660006101000a81548173ffffffffffffffffffffffffffffffffffffffff021916908373ffffffffffffffffffffffffffffffffffffffff16021790555082600160006101000a81548173ffffffffffffffffffffffffffffffffffffffff021916908373ffffffffffffffffffffffffffffffffffffffff16021790555081600260006101000a81548173ffffffffffffffffffffffffffffffffffffffff021916908373ffffffffffffffffffffffffffffffffffffffff16021790555080600881905550611a0b600781905550685150ae84a8cdf0000060098190555069032d26d12e980b600000600a819055505050505050611db9806102616000396000f30060606040526004361061015f576000357c0100000000000000000000000000000000000000000000000000000000900463ffffffff1680630a88203b1461016a57806312f2b8381461017f578063182f67a3146101945780632621b6e3146101bd57806327e235e3146101ea5780632c4e722e146102375780634042b66f1461026057806341aeaea71461028957806345e4f34a146102b2578063521eb273146102ff578063590e1ae3146103545780635a7adf7f1461036957806378e97925146103be5780637974fdbd146103e75780638a3aa194146104145780638d9496351461043d5780638da5cb5b14610466578063906a26e0146104bb5780639a651f0b146104e4578063b10ed48714610511578063d4e932921461053a578063d67c1a7a1461054f578063ec8ac4d814610564578063ecb70fb714610592578063f2fde38b146105bf578063fb86a404146105f8578063fc0c546a14610621575b61016833610676565b005b341561017557600080fd5b61017d610b05565b005b341561018a57600080fd5b610192610e88565b005b341561019f57600080fd5b6101a76110de565b6040518082815260200191505060405180910390f35b34156101c857600080fd5b6101d06110e4565b604051808215151515815260200191505060405180910390f35b34156101f557600080fd5b610221600480803573ffffffffffffffffffffffffffffffffffffffff169060200190919050506110f7565b6040518082815260200191505060405180910390f35b341561024257600080fd5b61024a61110f565b6040518082815260200191505060405180910390f35b341561026b57600080fd5b610273611115565b6040518082815260200191505060405180910390f35b341561029457600080fd5b61029c61111b565b6040518082815260200191505060405180910390f35b34156102bd57600080fd5b6102e9600480803573ffffffffffffffffffffffffffffffffffffffff16906020019091905050611121565b6040518082815260200191505060405180910390f35b341561030a57600080fd5b610312611139565b604051808273ffffffffffffffffffffffffffffffffffffffff1673ffffffffffffffffffffffffffffffffffffffff16815260200191505060405180910390f35b341561035f57600080fd5b61036761115f565b005b341561037457600080fd5b61037c6114c0565b604051808273ffffffffffffffffffffffffffffffffffffffff1673ffffffffffffffffffffffffffffffffffffffff16815260200191505060405180910390f35b34156103c957600080fd5b6103d16114e6565b6040518082815260200191505060405180910390f35b34156103f257600080fd5b6103fa6114ec565b604051808215151515815260200191505060405180910390f35b341561041f57600080fd5b6104276114ff565b6040518082815260200191505060405180910390f35b341561044857600080fd5b610450611505565b6040518082815260200191505060405180910390f35b341561047157600080fd5b61047961150b565b604051808273ffffffffffffffffffffffffffffffffffffffff1673ffffffffffffffffffffffffffffffffffffffff16815260200191505060405180910390f35b34156104c657600080fd5b6104ce611530565b6040518082815260200191505060405180910390f35b34156104ef57600080fd5b6104f7611536565b604051808215151515815260200191505060405180910390f35b341561051c57600080fd5b610524611549565b6040518082815260200191505060405180910390f35b341561054557600080fd5b61054d61154f565b005b341561055a57600080fd5b61056261169a565b005b610590600480803573ffffffffffffffffffffffffffffffffffffffff16906020019091905050610676565b005b341561059d57600080fd5b6105a56119b5565b604051808215151515815260200191505060405180910390f35b34156105ca57600080fd5b6105f6600480803573ffffffffffffffffffffffffffffffffffffffff169060200190919050506119c1565b005b341561060357600080fd5b61060b611b16565b6040518082815260200191505060405180910390f35b341561062c57600080fd5b610634611b1c565b604051808273ffffffffffffffffffffffffffffffffffffffff1673ffffffffffffffffffffffffffffffffffffffff16815260200191505060405180910390f35b600080600080600354421015801561069057506004544211155b905080151561069e57600080fd5b600a54610751600260009054906101000a900473ffffffffffffffffffffffffffffffffffffffff1673ffffffffffffffffffffffffffffffffffffffff16634042b66f6040518163ffffffff167c0100000000000000000000000000000000000000000000000000000000028152600401602060405180830381600087803b151561072957600080fd5b5af1151561073657600080fd5b50505060405180519050600d54611b4290919063ffffffff16565b10151561075d57600080fd5b600060149054906101000a900460ff1615151561077957600080fd5b6001600060146101000a81548160ff021916908315150217905550600073ffffffffffffffffffffffffffffffffffffffff168573ffffffffffffffffffffffffffffffffffffffff16141515156107d057600080fd5b60085434101515156107e157600080fd5b3493506107ed84611b60565b92506107f7611b7e565b915061083161082260646108148587611c8c90919063ffffffff16565b611cc790919063ffffffff16565b84611b4290919063ffffffff16565b9250600160009054906101000a900473ffffffffffffffffffffffffffffffffffffffff1673ffffffffffffffffffffffffffffffffffffffff166340c10f1986856040518363ffffffff167c0100000000000000000000000000000000000000000000000000000000028152600401808373ffffffffffffffffffffffffffffffffffffffff1673ffffffffffffffffffffffffffffffffffffffff16815260200182815260200192505050602060405180830381600087803b15156108f757600080fd5b5af1151561090457600080fd5b505050604051805190505061092484600d54611b4290919063ffffffff16565b600d8190555061097c84600b60008873ffffffffffffffffffffffffffffffffffffffff1673ffffffffffffffffffffffffffffffffffffffff16815260200190815260200160002054611b4290919063ffffffff16565b600b60008773ffffffffffffffffffffffffffffffffffffffff1673ffffffffffffffffffffffffffffffffffffffff16815260200190815260200160002081905550610a1183600c60008873ffffffffffffffffffffffffffffffffffffffff1673ffffffffffffffffffffffffffffffffffffffff16815260200190815260200160002054611b4290919063ffffffff16565b600c60008773ffffffffffffffffffffffffffffffffffffffff1673ffffffffffffffffffffffffffffffffffffffff16815260200190815260200160002081905550600a54600d54101515610a7757426004819055506276a700600454016005819055505b8473ffffffffffffffffffffffffffffffffffffffff163373ffffffffffffffffffffffffffffffffffffffff167f623b3804fa71d67900d064613da8f94b9617215ee90799290593e1745087ad188686604051808381526020018281526020019250505060405180910390a360008060146101000a81548160ff0219169083151502179055505050505050565b600080600954610bbb600260009054906101000a900473ffffffffffffffffffffffffffffffffffffffff1673ffffffffffffffffffffffffffffffffffffffff16634042b66f6040518163ffffffff167c0100000000000000000000000000000000000000000000000000000000028152600401602060405180830381600087803b1515610b9357600080fd5b5af11515610ba057600080fd5b50505060405180519050600d54611b4290919063ffffffff16565b10158015610bca575060045442115b8015610bd857506005544211155b1515610be357600080fd5b600060149054906101000a900460ff16151515610bff57600080fd5b6001600060146101000a81548160ff021916908315150217905550600b60003373ffffffffffffffffffffffffffffffffffffffff1673ffffffffffffffffffffffffffffffffffffffff168152602001908152602001600020549150600c60003373ffffffffffffffffffffffffffffffffffffffff1673ffffffffffffffffffffffffffffffffffffffff168152602001908152602001600020549050610ca6610e88565b610caf82611cdd565b91506000600b60003373ffffffffffffffffffffffffffffffffffffffff1673ffffffffffffffffffffffffffffffffffffffff168152602001908152602001600020819055506000600c60003373ffffffffffffffffffffffffffffffffffffffff1673ffffffffffffffffffffffffffffffffffffffff16815260200190815260200160002081905550610d5082600e54611d0f90919063ffffffff16565b600e81905550600160009054906101000a900473ffffffffffffffffffffffffffffffffffffffff1673ffffffffffffffffffffffffffffffffffffffff1663d0482d0433836040518363ffffffff167c0100000000000000000000000000000000000000000000000000000000028152600401808373ffffffffffffffffffffffffffffffffffffffff1673ffffffffffffffffffffffffffffffffffffffff16815260200182815260200192505050600060405180830381600087803b1515610e1a57600080fd5b5af11515610e2757600080fd5b5050503373ffffffffffffffffffffffffffffffffffffffff166108fc839081150290604051600060405180830381858888f193505050501515610e6a57600080fd5b60008060146101000a81548160ff0219169083151502179055505050565b6000600954610f3d600260009054906101000a900473ffffffffffffffffffffffffffffffffffffffff1673ffffffffffffffffffffffffffffffffffffffff16634042b66f6040518163ffffffff167c0100000000000000000000000000000000000000000000000000000000028152600401602060405180830381600087803b1515610f1557600080fd5b5af11515610f2257600080fd5b50505060405180519050600d54611b4290919063ffffffff16565b10158015610f4c575060045442115b8015610f5a57506005544211155b1515610f6557600080fd5b601060009054906101000a900460ff16158015610f83575060045442115b15610fd2576828a857425466f80000905080600f81905550610fb081600d54611d0f90919063ffffffff16565b600e819055506001601060006101000a81548160ff0219169083151502179055505b601060019054906101000a900460ff16158015610ff55750624f1a006004540142115b15611077576110236064611015601e600e54611c8c90919063ffffffff16565b611cc790919063ffffffff16565b905061103a81600f54611b4290919063ffffffff16565b600f8190555061105581600e54611d0f90919063ffffffff16565b600e819055506001601060016101000a81548160ff0219169083151502179055505b601060029054906101000a900460ff16158015611095575060055442115b156110db576110b1600e54600f54611b4290919063ffffffff16565b600f819055506000600e819055506001601060026101000a81548160ff0219169083151502179055505b50565b600f5481565b601060029054906101000a900460ff1681565b600b6020528060005260406000206000915090505481565b60075481565b600d5481565b600e5481565b600c6020528060005260406000206000915090505481565b600660009054906101000a900473ffffffffffffffffffffffffffffffffffffffff1681565b600080600954611215600260009054906101000a900473ffffffffffffffffffffffffffffffffffffffff1673ffffffffffffffffffffffffffffffffffffffff16634042b66f6040518163ffffffff167c0100000000000000000000000000000000000000000000000000000000028152600401602060405180830381600087803b15156111ed57600080fd5b5af115156111fa57600080fd5b50505060405180519050600d54611b4290919063ffffffff16565b108015611223575060045442115b151561122e57600080fd5b600060149054906101000a900460ff1615151561124a57600080fd5b6001600060146101000a81548160ff021916908315150217905550600b60003373ffffffffffffffffffffffffffffffffffffffff1673ffffffffffffffffffffffffffffffffffffffff168152602001908152602001600020549150600c60003373ffffffffffffffffffffffffffffffffffffffff1673ffffffffffffffffffffffffffffffffffffffff1681526020019081526020016000205490506000600b60003373ffffffffffffffffffffffffffffffffffffffff1673ffffffffffffffffffffffffffffffffffffffff168152602001908152602001600020819055506000600c60003373ffffffffffffffffffffffffffffffffffffffff1673ffffffffffffffffffffffffffffffffffffffff1681526020019081526020016000208190555061138882600d54611d0f90919063ffffffff16565b600d81905550600160009054906101000a900473ffffffffffffffffffffffffffffffffffffffff1673ffffffffffffffffffffffffffffffffffffffff1663d0482d0433836040518363ffffffff167c0100000000000000000000000000000000000000000000000000000000028152600401808373ffffffffffffffffffffffffffffffffffffffff1673ffffffffffffffffffffffffffffffffffffffff16815260200182815260200192505050600060405180830381600087803b151561145257600080fd5b5af1151561145f57600080fd5b5050503373ffffffffffffffffffffffffffffffffffffffff166108fc839081150290604051600060405180830381858888f1935050505015156114a257600080fd5b60008060146101000a81548160ff0219169083151502179055505050565b600260009054906101000a900473ffffffffffffffffffffffffffffffffffffffff1681565b60035481565b601060019054906101000a900460ff1681565b60045481565b60055481565b6000809054906101000a900473ffffffffffffffffffffffffffffffffffffffff1681565b60095481565b601060009054906101000a900460ff1681565b60085481565b60008060009054906101000a900473ffffffffffffffffffffffffffffffffffffffff1673ffffffffffffffffffffffffffffffffffffffff163373ffffffffffffffffffffffffffffffffffffffff161415156115ac57600080fd5b60095461165f600260009054906101000a900473ffffffffffffffffffffffffffffffffffffffff1673ffffffffffffffffffffffffffffffffffffffff16634042b66f6040518163ffffffff167c0100000000000000000000000000000000000000000000000000000000028152600401602060405180830381600087803b151561163757600080fd5b5af1151561164457600080fd5b50505060405180519050600d54611b4290919063ffffffff16565b1015801561166e575060045442115b151561167957600080fd5b611681610e88565b600f5490506000600f8190555061169781611d28565b50565b6000809054906101000a900473ffffffffffffffffffffffffffffffffffffffff1673ffffffffffffffffffffffffffffffffffffffff163373ffffffffffffffffffffffffffffffffffffffff161415156116f557600080fd5b6009546117a8600260009054906101000a900473ffffffffffffffffffffffffffffffffffffffff1673ffffffffffffffffffffffffffffffffffffffff16634042b66f6040518163ffffffff167c0100000000000000000000000000000000000000000000000000000000028152600401602060405180830381600087803b151561178057600080fd5b5af1151561178d57600080fd5b50505060405180519050600d54611b4290919063ffffffff16565b101580156117b7575060055442115b15156117c257600080fd5b6117ca610e88565b6000600f819055506117f23073ffffffffffffffffffffffffffffffffffffffff1631611d28565b600160009054906101000a900473ffffffffffffffffffffffffffffffffffffffff1673ffffffffffffffffffffffffffffffffffffffff166340c10f19600660009054906101000a900473ffffffffffffffffffffffffffffffffffffffff1661191761df3761190961a769600160009054906101000a900473ffffffffffffffffffffffffffffffffffffffff1673ffffffffffffffffffffffffffffffffffffffff166318160ddd6040518163ffffffff167c0100000000000000000000000000000000000000000000000000000000028152600401602060405180830381600087803b15156118e457600080fd5b5af115156118f157600080fd5b50505060405180519050611c8c90919063ffffffff16565b611cc790919063ffffffff16565b6040518363ffffffff167c0100000000000000000000000000000000000000000000000000000000028152600401808373ffffffffffffffffffffffffffffffffffffffff1673ffffffffffffffffffffffffffffffffffffffff16815260200182815260200192505050602060405180830381600087803b151561199b57600080fd5b5af115156119a857600080fd5b5050506040518051905050565b60006005544211905090565b6000809054906101000a900473ffffffffffffffffffffffffffffffffffffffff1673ffffffffffffffffffffffffffffffffffffffff163373ffffffffffffffffffffffffffffffffffffffff16141515611a1c57600080fd5b600073ffffffffffffffffffffffffffffffffffffffff168173ffffffffffffffffffffffffffffffffffffffff1614151515611a5857600080fd5b8073ffffffffffffffffffffffffffffffffffffffff166000809054906101000a900473ffffffffffffffffffffffffffffffffffffffff1673ffffffffffffffffffffffffffffffffffffffff167f8be0079c531659141344cd1fd0a4f28419497f9722a3daafe3b4186f6b6457e060405160405180910390a3806000806101000a81548173ffffffffffffffffffffffffffffffffffffffff021916908373ffffffffffffffffffffffffffffffffffffffff16021790555050565b600a5481565b600160009054906101000a900473ffffffffffffffffffffffffffffffffffffffff1681565b6000808284019050838110151515611b5657fe5b8091505092915050565b6000611b7760075483611c8c90919063ffffffff16565b9050919050565b600080611c31600260009054906101000a900473ffffffffffffffffffffffffffffffffffffffff1673ffffffffffffffffffffffffffffffffffffffff16634042b66f6040518163ffffffff167c0100000000000000000000000000000000000000000000000000000000028152600401602060405180830381600087803b1515611c0957600080fd5b5af11515611c1657600080fd5b50505060405180519050600d54611b4290919063ffffffff16565b9050685150ae84a8cdf00000811015611c4d5760149150611c88565b69010f0cf064dd59200000811015611c6857600a9150611c88565b69021e19e0c9bab2400000811015611c835760059150611c88565b600091505b5090565b6000806000841415611ca15760009150611cc0565b8284029050828482811515611cb257fe5b04141515611cbc57fe5b8091505b5092915050565b60008183811515611cd457fe5b04905092915050565b6000611d08600d54611cfa600e5485611c8c90919063ffffffff16565b611cc790919063ffffffff16565b9050919050565b6000828211151515611d1d57fe5b818303905092915050565b600660009054906101000a900473ffffffffffffffffffffffffffffffffffffffff1673ffffffffffffffffffffffffffffffffffffffff166108fc829081150290604051600060405180830381858888f193505050501515611d8a57600080fd5b505600a165627a7a723058209006755f939dbdf47d5ec1a55ee3760996847a6566da8b6ce5f0df469aef8c5e0029",
  "source": "pragma solidity ^0.4.18;\n\nimport \"./RicoToken.sol\";\nimport \"./PreSale.sol\";\n\ncontract rICO is Ownable, ReentrancyGuard {\n    using SafeMath for uint256;\n\n    // The token being sold\n    RicoToken public token;\n\n    // PreSale\n    PreSale public preSale;\n\n    // Timestamps of periods\n    uint256 public startTime;\n    uint256 public endCrowdSaleTime;\n    uint256 public endRefundableTime;\n\n\n    // Address where funds are transferred\n    address public wallet;\n\n    // How many token units a buyer gets per wei\n    uint256 public rate;\n\n    uint256 public minimumInvest; // in wei\n\n    uint256 public softCap; // in wei\n    uint256 public hardCap; // in wei\n\n    // investors => amount of money\n    mapping(address => uint) public balances;\n    mapping(address => uint) public balancesInToken;\n\n    // Amount of wei raised\n    uint256 public weiRaised;\n\n    // Rest amount of wei after refunding by investors and withdraws by owner\n    uint256 public restWei;\n\n    // Amount of wei which reserved for withdraw by owner\n    uint256 public reservedWei;\n\n    // stages of Refundable part\n    bool public firstStageRefund = false;  // allow 750 eth to withdraw\n    bool public secondStageRefund = false;  // allow 30 percent of rest wei to withdraw\n    bool public finalStageRefund = false;  // allow all rest wei to withdraw\n\n    /**\n     * event for token purchase logging\n     * @param purchaser who paid for the tokens\n     * @param beneficiary who got the tokens\n     * @param value weis paid for purchase\n     * @param amount amount of tokens purchased\n     */\n    event TokenPurchase(address indexed purchaser, address indexed beneficiary, uint256 value, uint256 amount);\n\n    function rICO(\n        uint256 _startTime,\n        address _wallet,\n        address _token,\n        address _preSale,\n        uint256 _minimumInvest) public\n    {\n        require(_token != address(0));\n\n        startTime = _startTime;\n        endCrowdSaleTime = startTime + 60 * 1 days;\n        endRefundableTime = endCrowdSaleTime + 90 * 1 days;\n\n        wallet = _wallet;\n        token = RicoToken(_token);\n        preSale = PreSale(_preSale);\n\n        // minimumInvest in wei\n        minimumInvest = _minimumInvest;\n\n        // 1 token for approximately 0.00015 eth\n        rate = 6667;\n\n        softCap = 1500 * 1 ether;\n        hardCap = 15000 * 1 ether;\n    }\n\n    // @return true if the transaction can buy tokens\n    modifier saleIsOn() {\n        bool withinPeriod = now >= startTime && now <= endCrowdSaleTime;\n        require(withinPeriod);\n        _;\n    }\n\n    modifier isUnderHardCap() {\n        require(weiRaised.add(preSale.weiRaised()) < hardCap);\n        _;\n    }\n\n    // unsuccessful end of CrowdSale\n    modifier refundAllowed() {\n        require(weiRaised.add(preSale.weiRaised()) < softCap && now > endCrowdSaleTime);\n        _;\n    }\n\n    // successful end of CrowdSale\n    modifier successRefundAllowed() {\n        require(weiRaised.add(preSale.weiRaised()) >= softCap && now > endCrowdSaleTime && now <= endRefundableTime);\n        _;\n    }\n\n    // @return true if CrowdSale event has ended\n    function hasEnded() public view returns (bool) {\n        return now > endRefundableTime;\n    }\n\n    // Get bonus percent\n    function getBonusPercent() internal view returns(uint256) {\n        uint256 collectedWei = weiRaised.add(preSale.weiRaised());\n\n        if (collectedWei < 1500 * 1 ether) {\n            return 20;\n        }\n        if (collectedWei < 5000 * 1 ether) {\n            return 10;\n        }\n        if (collectedWei < 10000 * 1 ether) {\n            return 5;\n        }\n\n        return 0;\n    }\n\n    // Get real value to return to investor\n    function getRealValueToReturn(uint256 _value) internal view returns(uint256) {\n        return _value.mul(restWei).div(weiRaised);\n    }\n\n    // Update of reservedWei for withdraw\n    function updateReservedWei() public successRefundAllowed {\n        uint256 curWei;\n\n        if (!firstStageRefund && now > endCrowdSaleTime) {\n            curWei = 750 * 1 ether;\n\n            reservedWei = curWei;\n            restWei = weiRaised.sub(curWei);\n\n            firstStageRefund = true;\n        }\n\n        if (!secondStageRefund && now > endCrowdSaleTime + 60 * 1 days) {\n            curWei = restWei.mul(30).div(100);\n\n            reservedWei = reservedWei.add(curWei);\n            restWei = restWei.sub(curWei);\n\n            secondStageRefund = true;\n        }\n\n        if (!finalStageRefund && now > endRefundableTime) {\n            reservedWei = reservedWei.add(restWei);\n            restWei = 0;\n\n            finalStageRefund = true;\n        }\n\n    }\n\n    // Refund ether to the investors in case of unsuccessful end of CrowdSale\n    function refund() public refundAllowed nonReentrant {\n        uint256 valueToReturn = balances[msg.sender];\n        uint256 tokensToReturn = balancesInToken[msg.sender];\n\n        // update states\n        balances[msg.sender] = 0;\n        balancesInToken[msg.sender] = 0;\n        weiRaised = weiRaised.sub(valueToReturn);\n\n        // burn tokens\n        token.burnForRefund(msg.sender, tokensToReturn);\n\n        msg.sender.transfer(valueToReturn);\n    }\n\n    // Refund part of ether to the investors in case of successful end of CrowdSale\n    function refundPart() public successRefundAllowed nonReentrant {\n        uint256 valueToReturn = balances[msg.sender];\n        uint256 tokensToReturn = balancesInToken[msg.sender];\n\n        // get real value to return\n        updateReservedWei();\n        valueToReturn = getRealValueToReturn(valueToReturn);\n\n        // update states\n        balances[msg.sender] = 0;\n        balancesInToken[msg.sender] = 0;\n        restWei = restWei.sub(valueToReturn);\n\n        // burn tokens\n        token.burnForRefund(msg.sender, tokensToReturn);\n\n        msg.sender.transfer(valueToReturn);\n\n    }\n\n    // Get amount of tokens\n    // @param value weis paid for tokens\n    function getTokenAmount(uint256 _value) internal view returns (uint256) {\n        return _value.mul(rate);\n    }\n\n    // Send weis to the wallet\n    function forwardFunds(uint256 _value) internal {\n        wallet.transfer(_value);\n    }\n\n    // Withdrawal eth to owner\n    function withdrawal() public onlyOwner {\n        require(weiRaised.add(preSale.weiRaised()) >= softCap && now > endCrowdSaleTime);\n\n        updateReservedWei();\n\n        uint256 withdrawalWei = reservedWei;\n        reservedWei = 0;\n        forwardFunds(withdrawalWei);\n    }\n\n    // Success finish of CrowdSale\n    function finishCrowdSale() public onlyOwner {\n        require(weiRaised.add(preSale.weiRaised()) >= softCap && now > endRefundableTime);\n\n        // withdrawal all eth from contract\n        updateReservedWei();\n        reservedWei = 0;\n        forwardFunds(this.balance);\n\n        // mint tokens to owner - wallet\n        token.mint(wallet, token.totalSupply().mul(42857).div(57143));\n    }\n\n    // low level token purchase function\n    function buyTokens(address _beneficiary) saleIsOn isUnderHardCap nonReentrant public payable {\n        require(_beneficiary != address(0));\n        require(msg.value >= minimumInvest);\n\n        uint256 weiAmount = msg.value;\n        uint256 tokens = getTokenAmount(weiAmount);\n        uint256 bonusPercent = getBonusPercent();\n        tokens = tokens.add(tokens.mul(bonusPercent).div(100));\n\n        token.mint(_beneficiary, tokens);\n\n        // update states\n        weiRaised = weiRaised.add(weiAmount);\n        balances[_beneficiary] = balances[_beneficiary].add(weiAmount);\n        balancesInToken[_beneficiary] = balancesInToken[_beneficiary].add(tokens);\n\n        // update timestamps and begin Refundable stage\n        if (weiRaised >= hardCap) {\n            endCrowdSaleTime = now;\n            endRefundableTime = endCrowdSaleTime + 90 * 1 days;\n        }\n\n        TokenPurchase(msg.sender, _beneficiary, weiAmount, tokens);\n    }\n\n    function() external payable {\n        buyTokens(msg.sender);\n    }\n}",
  "sourcePath": "/Users/alexander/Desktop/Rico/contracts/rICO.sol",
  "compiler": {
    "name": "solc",
    "version": "0.4.21+commit.dfe3193c.Emscripten.clang"
  },
  "schemaVersion": "2.0.0",
  "updatedAt": "2018-04-12T20:04:30.566Z"
}